:020000040800F2
:10000000500C0020C9010008E50F00082D0C000865
:10001000E10F0008A9070008971D00080000000074
:10002000000000000000000000000000ED140008C7
:100030000108000800000000DF010008E1010008DD
:10004000E3010008E3010008E3010008D9120008F9
:10005000E3010008E3010008E3010008E3010008F0
:10006000E3010008E3010008E3010008E3010008E0
:10007000E3010008E3010008E3010008E3010008D0
:10008000E3010008E3010008E3010008E3010008C0
:10009000E3010008E3010008E3010008E3010008B0
:1000A000E3010008E3010008E3010008E3010008A0
:1000B000E3010008F9160008B9170008E301000879
:1000C000E3010008E3010008E3010008E301000880
:1000D000E3010008D91900082D1A0008811A000848
:1000E000E3010008E3010008E3010008E301000860
:1000F000E3010008E3010008E3010008E301000850
:10010000E3010008E3010008E3010008E30100083F
:10011000B91800080D190008E3010008E301000800
:10012000E3010008E3010008E3010008E30100081F
:10013000E3010008E3010008E3010008E30100080F
:10014000E3010008E3010008E3010008E3010008FF
:10015000E3010008E3010008E3010008D51A0008E4
:10016000E3010008E3010008E3010008E3010008DF
:10017000E3010008E3010008E3010008E3010008CF
:10018000E3010008E301000861190008E301000829
:10019000E3010008E3010008E3010008E3010008AF
:1001A000E3010008E3010008E3010008DFF80CD0D8
:1001B00000F02AFA00480047D9260008500C002019
:1001C00080F30888704700000648804706480047CB
:1001D000FEE7FEE7FEE7FEE7FEE7FEE7FEE7FEE7F7
:1001E000FEE7FEE735160008AD010008D2B201E0D7
:1001F00000F8012B491EFBD270470022F6E710B52C
:1002000013460A4604461946FFF7F0FF204610BD84
:1002100030B50B46014600202022012409E021FAD6
:1002200002F59D4205D303FA02F5491B04FA02F5D3
:100230002844151EA2F10102F1DC30BD2DE9F05F6A
:100240000546002092469B46884606468146402445
:100250001BE0284641464746224600F0F6F9534641
:100260005A46C01A914110D311461846224600F052
:10027000DDF92D1A67EB01084F46224601200021C7
:1002800000F0D4F917EB00094E41201EA4F101043F
:10029000DFDC484631462A464346BDE8F09F2DE95B
:1002A000FE4F804681EA0300C00F0C46009021F00B
:1002B000004123F00045B8EB0200A94105D24046B9
:1002C000214690461C460B46024623F00040104350
:1002D00047D0270DC7F30A00C3F30A510290401A12
:1002E000019040286BDAC3F3130040F4801B0098A0
:1002F000924620B10023D2EB030A63EB0B0B01986B
:100300005946C0F14002504600F090F906460D46AD
:1003100050465946019A00F0A8F910EB08006141D7
:10032000002487EA115284EAE7731A4340D0009A06
:1003300062B3019A012A4FEA075215DC001B61EBF8
:1003400002014FF0004202EA0752CDE90042001CD0
:1003500041F5801132462B4600F0A6F903B0BDE806
:10036000F08F40462146F9E7001B61EB0201001CBB
:1003700041F5801300185B412018A2F5001747EBE8
:10038000030140EAD570B6196D4111E06D084FEADE
:10039000360645EAC0754FEA0752001B61EB0201C1
:1003A000001C41F5801149084FEA30000019514105
:1003B00032462B4603B0BDE8F04F00F068B9009814
:1003C000012240000023D0EB020263EBE0730098AF
:1003D00021464FEAE074B8EB000061EB0401E9E765
:1003E00083F000435BE781F0004158E72DE9FE4FC1
:1003F00081EA030404F0004421F0004100944FF02E
:10040000000B23F0004350EA01045ED052EA0304DB
:100410005BD0C3F30A54C1F30A552C44A4F2F3345D
:100420000194A0FB0254C1F3130141F48011C3F302
:10043000130343F4801301FB024400FB034E840AC0
:10044000970A44EA815447EA8357A4FB0768029558
:100450008D0A05FB07854FEA932C04FB0C542705F6
:10046000029D4FEA065847EA1637B5EB08056EEBD2
:10047000070C870E920E47EA811742EA8312A7FB08
:100480000201B6EB0B0164EB00042B0D43EA0C33C5
:100490005E1844EB1C50DA465146E7FB0201C5F3F7
:1004A00013044FEA0B3343EA14534FEA0432019C1E
:1004B00043EA0603A4F10C040294009CCDE900B4C5
:1004C00000F0F2F803B0BDE8F08F00200146F9E734
:1004D0002DE9F04D81EA030404F0004B21F00045C2
:1004E00014464FF0000A23F0004150EA050220D0E4
:1004F00054EA01021DD0C5F30A570246C5F313039F
:10050000C1F31300C1F30A5640F4801543F480137D
:10051000A7EB0608101BD64608F2FD3873EB050062
:1005200002D308F1010801E092185B41B8F1000F15
:1005300003DA00200146BDE8F08D00204FF4801161
:10054000064684460EE0171B73EB050705D3121B06
:1005500063EB050306434CEA010C49084FEA3000FF
:1005600092185B4150EA0107EDD152EA030012D024
:1005700082EA040083EA0501084305D0101BAB4161
:1005800006D20122002306E000224FF0004302E0E1
:100590006FF0010253101AEB06004CEB085110EB00
:1005A0000A0041EB0B01BDE8F04D00F070B8C1F35B
:1005B0000A52C1F3130140F2FF3341F480119A4211
:1005C00002DA00200146704740F233439A42A2F219
:1005D000334202DC524200F038B800F027B8000085
:1005E00030B5002904DB4FF00044404264EB0101C8
:1005F000002B04DB4FF00044524264EB03039942AA
:1006000008BF904230BD0000064C074D06E0E06890
:1006100040F0010394E8070098471034AC42F6D349
:10062000FFF7C8FDE4290008042A0008202A04DB9B
:10063000203A00FA02F1002070479140C2F12003F5
:1006400020FA03F3194390407047202A04DB203A34
:1006500021FA02F00021704721FA02F3D040C2F1E2
:1006600020029140084319467047202A06DBCB1729
:10067000203A41FA02F043EAE07306E041FA02F35D
:10068000D040C2F12002914008431946704710B58E
:10069000002B08DA401C41F1000192185B411A431B
:1006A00001D120F0010010BD2DE9F04D92469B468E
:1006B00011B1B1FA81F202E0B0FA80F22032904634
:1006C000FFF7B4FF04460F4640EA0A0041EA0B0177
:1006D00053465A46084313D0114653EA010019D035
:1006E000C8F140025046FFF7B0FF05460E4650469F
:1006F00059464246FFF79AFF084305D0012004E01F
:1007000020463946BDE8F08D0020054346EAE076F4
:100710002C4337430A986305E40AA0EB0800002243
:10072000FD0A44EA47540A3002D500200146E9E7B1
:10073000010510196941DDE9084500196941BDE865
:10074000F04DA4E710B500F049F94FF4807114485A
:1007500000F05FFA0221134800F05BFA642000F019
:1007600051F802210F4800F056FA4FF4C87000F01B
:1007700049F801F0FDF900F036FC42F2CF0141F2F8
:10078000873000F08BFF42F2CF0141F2873000F05A
:10079000E9FF00F00BF84FF4FA7000F033F810BDE9
:1007A000000002400018024000BFFEE710B5012122
:1007B000080300F0DBFC10BD2DE9F04105460C46B6
:1007C0001646601E84B200F015F806E0286807BAE5
:1007D000074807602D1D601E84B2002CF6D1044826
:1007E0000068B04202D00020BDE8F0810120FBE7A4
:1007F000003002400120014988607047003002400B
:1008000070470000002105E0054900BF0A00A1F182
:100810000101FBD10200A0F10100F5D170470000F9
:10082000401901000149086070470000143C014074
:1008300030B10749096841F48061054A116005E05B
:100840000349096821F48061014A11607047000082
:10085000003C024070B504460A460026092502B94C
:1008600009E0012A01D1160205E0022A01D116028F
:1008700001E04FF4407600F09FF80546092D28D19D
:100880001548006820F44070134908600846006865
:10089000304308600846006820F0F8000860084609
:1008A000006844F0020108430B49086008460068EC
:1008B00040F48030086000F07FF805460648006884
:1008C00020F00200044908600846006820F0F800A3
:1008D0000860284670BD0000103C02400920134902
:1008E000096801F48031B1F5803F01D101201CE09D
:1008F0000E49096801F0100109B1062015E00B4905
:10090000096801F4807109B102200EE00749096805
:1009100001F0EF0109B1072007E00449096801F07F
:10092000020109B1082000E0092070470C3C024098
:100930000348006840F0004001490860704700002B
:10094000103C024030B502460C46092500F034F850
:100950000546092D19D10E48006820F440700C4955
:1009600008600846006840F40070086008460068A7
:1009700040F001000860146000F01EF805460448CD
:10098000006820F0010002490860284630BD0000E0
:10099000103C02400548006800F0004028B10448BF
:1009A00002490C390860034808607047103C024057
:1009B00023016745AB89EFCD08B509200090FFF70B
:1009C0008DFF009002E0FFF789FF00909DF8000086
:1009D0000128F8D09DF8000008BD00001CB50121D9
:1009E000084600F0C3FB0121022000F0BFFB0121FB
:1009F000042000F0BBFB0121082000F0B7FB01211F
:100A0000102000F0B3FB0121402000F0AFFB4FF4B9
:100A10000040009002208DF8050001208DF80400B0
:100A200000208DF8060069463F4800F087F808204E
:100A3000009001208DF8040000208DF806008DF84C
:100A400007006946394800F079F808220C21384837
:100A500000F0BCF808220221334800F0B7F86846DD
:100A600000F0DBF84FF48050009002208DF8040075
:100A70008DF8050069462E4800F060F804200090CB
:100A800002208DF804008DF805006946264800F024
:100A900055F808220721274800F098F80822114647
:100AA000244800F093F8684600F0B7F84FF4C0709F
:100AB000009002208DF804008DF8050000208DF8CC
:100AC00006008DF8070069461A4800F037F84FF421
:100AD0008070009001208DF8040000208DF8060041
:100AE0008DF807006946144800F028F84FF480603C
:100AF000009001208DF8040000208DF806008DF88C
:100B000007006946084800F019F80220009001200B
:100B10008DF8040000208DF806008DF80700694666
:100B2000024800F00BF81CBD000C02400018024007
:100B3000000802400010024000000240F0B50A46E2
:100B400000210023002400BF3DE0012505FA01F348
:100B5000156805EA03049C4234D105684F0003265A
:100B6000BE40B543056015794E00B5400668354373
:100B700005601579012D02D01579022D16D18568F1
:100B80004F000326BE40B543856055794E00B54001
:100B9000866835438560456801268E40B5434560CB
:100BA000456896798E40B6B235434560C5684F00BA
:100BB0000326BE40B543C560D5794E00B540C66832
:100BC0003543C560491C1029BFD3F0BDF0B50023E3
:100BD00000244D07ED0E02FA05F3CE1000F12005BA
:100BE00055F826504E07F70E0F26BE40B543CF10DE
:100BF00000F1200646F82750CE1000F1200555F8E8
:100C0000265045EA0304CE1000F1200545F82640A1
:100C1000F0BD41837047018370474FF6FF7101605B
:100C20000021017141718171C171704700BFFEE700
:100C30002DE9F043ADF2044D0546002400260020C6
:100C4000CDF8000400278046A9464FF4806168462D
:100C5000FFF7D3FABBE026E066480088782822DD5B
:100C600000220121644800F0DBFD64A3AA221E21BA
:100C7000012000F05DF94FF4FA70FFF7C3FD002288
:100C80000121654800F0CCFD64A001F087F8322016
:100C9000FFF7B8FD65A001F081F83220FFF7B2FD43
:100CA000664800F0E5F86648008800F40040002837
:100CB000D2D000204F4908806248007861494978C5
:100CC00040EA0120CDF80004022406E05D48015D01
:100CD000A01E0DF80010601C84B2DDF80004801C1A
:100CE0008442F3D3574890F80204564991F803140C
:100CF00040EA0127534890F807040006514991F84B
:100D0000061440EA01404F4991F8051440EA0120D9
:100D10004C4991F8041440EA01084FF4806000FB4C
:100D200007594FF481642046E11704EB91718C1050
:100D3000424621464348FFF73FFD30B942A001F04B
:100D40002DF800203E49088041E0DDF80004B0F5B0
:100D5000806F1CD2DDF8000400F0010020B1DDF846
:100D60000004401CCDF80004DDF800048208694648
:100D7000484600F067FB701C86B201220DF58061C9
:100D8000334800F05FFB33A001F008F820E0DDF805
:100D9000000482086946484600F054FB701C86B285
:100DA000002027490880002404E000202549085538
:100DB000601C84B2B4F5816FF7DB27A382221E2169
:100DC000012000F0B5F828A000F0E8FF00BF42E7DE
:100DD00000BF00201A490880002404E000201949BF
:100DE0000855601C84B2B4F5816FF7DB0DF2044D39
:100DF000BDE8F08322000020000800404A756D70B5
:100E000020696E746F206170706C69636174696FC2
:100E10006E2E2E2E000000000004004023463743B3
:100E20007C48454152544F4E2A0000002353504104
:100E300052454150502A0D0A0000000000000608EB
:100E40003C00002048000020416761696E0A0000F4
:100E500000FC00084F4B0A00557067726164696EB0
:100E6000672E2E2E000000004E6578740A000000E8
:100E700010B5044620680A490840B0F1005F09D166
:100E80006068084908602068FFF79AF9054800681B
:100E9000804704E004A000F081FF00BFFEE710BD22
:100EA0000000FE2F380000204572726F720A0000A9
:100EB00010B500242DE01C4800F064FFC4B21B48AC
:100EC000007808281ED2DFE800F0040A0B0C0D0E93
:100ED0000F173A2C02D101201449087013E000BF0B
:100EE00000BF00BF00BF00BF3B2C04D00F480078FC
:100EF000401C0E49087006E03B2C02D108200B492B
:100F0000087000E000BF00BF08480078082800D142
:100F100006E040F22551044800F06EFE0028CAD1D8
:100F200000BF0248007810BD007800404400002057
:100F30000FB4F0B5A7B007460D461646274800780F
:100F4000012847D130A8269096216846269B2F9AE3
:100F500000F02CFF002026906C46AA2000F0C8FA72
:100F6000982000F0C5FA280A00F0C2FAE8B200F0B2
:100F7000BFFA300A00F0BCFAF0B200F0B9FA07F19B
:100F80002001C8B200F0B4FA902000F0B1FA0320BA
:100F900000F0AEFA002000F0ABFA002000F0A8FA52
:100FA000002000F0A5FA002000F0A2FA03E014F8F7
:100FB000010B00F09DFA20780028F8D1CC2000F039
:100FC00097FA332000F094FAC32000F091FA3C2005
:100FD00000F08EFA27B0F0BC5DF814FB350000205D
:100FE00000BFFEE7704708B54FF4C06000F0B4F8EA
:100FF00003208DF8000001208DF8010002208DF8FB
:10100000020001208DF80300684600F069F82520F1
:101010008DF8000000208DF8010005208DF80200F9
:1010200001208DF80300684600F05AF826208DF85C
:10103000000000208DF8010004208DF8020001203E
:101040008DF80300684600F04BF827208DF800006B
:1010500000208DF8010006208DF8020001208DF897
:101060000300684600F03CF834208DF800000020B2
:101070008DF8010002208DF8020001208DF8030098
:10108000684600F02DF835208DF8000000208DF81E
:10109000010003208DF8020001208DF8030068464E
:1010A00000F01EF847208DF8000000208DF80100A8
:1010B0008DF8020001208DF80300684600F010F85A
:1010C00052208DF8000000208DF8010001208DF8DD
:1010D00002008DF80300684600F002F808BD000029
:1010E00070B5002100230F22C4781CB3174C24686C
:1010F00004F4E064C4F5E064C4F30721C1F104041E
:10110000E3B20A4144789C40E1B284781440214320
:101110000C07210E0E4C05786155047804F01F056C
:101120000124AC4005786D11AD0005F1E025C5F84E
:10113000004109E0047804F01F050124AC40054D8E
:101140000678761145F8264070BD00000CED00E0F1
:1011500000E400E080E100E002490143024A11603E
:10116000704700000000FA050CED00E029B1064AC6
:1011700012680243044B1A6004E0034A1268824377
:10118000014B1A60704700003038024029B1064A0E
:1011900012680243044B1A6004E0034A1268824357
:1011A000014B1A607047000040380240F0B5002142
:1011B00000220024022500260223324F3F6807F058
:1011C0000C0121B1042905D0082937D105E02E4FA3
:1011D000076036E02D4F076033E02A4F3F1F3F681E
:1011E000C7F38056274F3F1F3F6807F03F036EB19C
:1011F000264FB7FBF3F7DFF88CC0ACF1040CDCF83A
:1012000000C0CCF3881C07FB0CF40CE01E4FB7FBAE
:10121000F3F7DFF870C0ACF1040CDCF800C0CCF3DD
:10122000881C07FB0CF4174F3F1F3F68C7F30147AB
:101230007F1C7D00B4FBF5F7076002E0124F0760EA
:1012400000BF00BF0F4F3F6807F0F0010909104FC2
:101250007A5C0768D74047600A4F3F6807F4E0515F
:10126000890A0B4F7A5C4768D7408760054F3F6813
:1012700007F46041490B064F7A5C4768D740C76066
:10128000F0BD0000083802400024F40000127A008B
:101290002500002081B241F08001044A126802F06A
:1012A000800262EA0101014A116070470C28004087
:1012B00010B5014600200022054B1B68054C03EACF
:1012C000040202EA01030BB1012000E0002010BD7E
:1012D0000C2800407F3F010010B54FF48060FFF7FD
:1012E000E7FF012802D18002FFF7D4FF4FF480000E
:1012F000FFF798FA10BD000001463A48814201D23A
:10130000002070473848814201D20820F9E7374869
:10131000814201D21020F4E73548814201D21820E1
:10132000EFE73448814201D22020EAE73248814287
:1013300001D22820E5E73148814201D23020E0E7A0
:101340002F48814201D23820DBE72E48814201D26A
:101350004020D6E72C48814201D24820D1E72B48D3
:10136000814201D25020CCE7B1F1016F01D2582067
:10137000C7E72748814201D28020C2E72548814241
:1013800001D28820BDE72448814201D29020B8E7ED
:101390002248814201D29820B3E72148814201D2FC
:1013A000A020AEE71F48814201D2A820A9E71E482D
:1013B000814201D2B020A4E71C48814201D2B8206A
:1013C0009FE71B48814201D2C0209AE71948814219
:1013D00001D2C82095E71848814201D2D02090E779
:1013E000D8208EE7004000080080000800C00008F8
:1013F00000000108000002080000040800000608C0
:101400000000080800000A0800000C0800000E0890
:10141000004010080080100800C0100800001108EB
:101420000000120800001408000016080000180848
:1014300000001A0800001C0800001E080146086889
:10144000704700002DE9F04704460E4617464FF05E
:1014500009080025A946B4F1006F02D304F0030087
:1014600008B1BDE8F087FFF795FA0020FFF7E0F933
:10147000254604EB87091848854215D211E0284615
:10148000FFF7DCFF401C58B12846FFF735FF8246C6
:101490000221FFF7DFF98046B8F1090F01D002E021
:1014A0002D1D4D45EBD300BFB8F1090F0CD108E05D
:1014B00020463168FFF746FA092800D003E0241DD2
:1014C000361D4C45F4D300BF0120FFF7B1F9FFF7FB
:1014D0002FFA00BFC5E700000000FF1F13B5044648
:1014E000012201A92046FFF7ADFF1CBD7047000097
:1014F00010B504462146054800F049FC00BF802194
:10150000024800F079FB0028F9D010BD00500040DF
:101510000CB50020019000904248006840F48030F3
:101520004049086000BF3F48006800F40030009068
:101530000198401C0190009818B90198B0F5A04F8F
:10154000F1D13848006800F4003010B1012000905B
:1015500001E0002000900098012803D13248314971
:10156000091D08602F484030006840F080502D4928
:10157000403108602D48006840F440402B49086025
:101580002848083000682749083108600846006884
:1015900040F4204008600846006840F4A05008600D
:1015A0002048006840F080701E49086000BF1D4858
:1015B000006800F000700028F9D01C48006840F472
:1015C00080301A49086000BF1848406800F4803035
:1015D0000028F9D01548006840F40030134908602D
:1015E00000BF1248406800F400300028F9D040F2F3
:1015F00005700F4908600B480830006820F00300B0
:101600000849083108600846006840F00200086098
:1016100000BF04480830006800F00C000828F8D12A
:101620000CBD000000380240085040070070004028
:10163000003C024010B51548006840F470001349A2
:1016400008601348006840F001001149086000205C
:101650000F49083108600E4800680E4908400C49DF
:1016600008600D48091D0860081F006820F48020EC
:10167000091F0860002006490C310860FFF748FF89
:101680004FF0006001498039086010BD88ED00E02E
:1016900000380240FFFFF6FE103000247FB50546FB
:1016A0000C4601210220FFF771FD0295ADF80440C0
:1016B0000020ADF80600ADF80C0001A90D4800F0BF
:1016C000B9F8012211460B4800F0AAF80121094897
:1016D00000F089F81D208DF8000001208DF8010030
:1016E00003208DF8020001208DF803006846FFF703
:1016F000F7FC7FBD0004004010B50121154800F043
:101700007EF828B30121134800F06AF812480088D7
:10171000401C1149088011480078C0430F490870E7
:101720000846007850B14FF480610D48FFF773FA16
:101730004FF400410A48FFF76EFA09E04FF4806168
:101740000748FFF766FA4FF400410548FFF761FAD2
:1017500010BD0000000400402000002024000020F4
:10176000000C02407FB505460C4601210420FFF71E
:101770000DFD0295ADF804400020ADF80600ADF86F
:101780000C0001A90B4800F055F801221146094848
:1017900000F046F81E208DF8000002208DF80100B0
:1017A00003208DF8020001208DF803006846FFF742
:1017B00097FC7FBD0008004010B50121064800F0ED
:1017C0001EF840B10121044800F00AF803480088DF
:1017D000401C0249088010BD000800402200002083
:1017E000CA430282704721B1028842F0010202809E
:1017F00004E002884FF6FE731A400280704730B54D
:101800000246002000230024158A05EA0103958979
:1018100005EA010413B10CB1012000E0002030BD45
:101820001AB183890B43838102E083898B438381CF
:101830007047000000220288184B98420ED0184BC7
:1018400098420BD0B0F1804F08D0164B984205D08B
:10185000154B984202D0154B984204D14FF68F7326
:101860001A404B881A43124B984207D0114B9842AA
:1018700004D04FF6FF431A400B891A4302804B688D
:10188000C3620B880385054B984202D0044B9842F3
:1018900001D18B7A038601238382704700000140C7
:1018A000000401400004004000080040000C00401B
:1018B000001000400014004010B540F225511248BD
:1018C00000F0A7F988B140F225510F4800F035F932
:1018D00008210D4800F090F9012806D108210A4896
:1018E00000F022F9084800F04DFA0821064800F0FF
:1018F00083F9012806D10821034800F015F90248B0
:1019000000F040FA10BD0000004C004010B540F25D
:101910002551124800F07DF988B140F225510F4859
:1019200000F00BF908210D4800F066F9012806D1F6
:1019300008210A4800F0F8F8084800F023FA0821C6
:10194000064800F059F9012806D10821034800F0A3
:10195000EBF8024800F016FA10BD000000500040FD
:1019600010B5002440F22551184800F052F9F0B1AA
:10197000164800F007FAC4B215480088B0F5816F28
:101980000FDA1348008800F40040B0F5004F08D08B
:101990000F4801880088401C0D4A10800D484454AF
:1019A00005E00B48008840F4004009490880082100
:1019B000064800F021F9012806D10821034800F06B
:1019C000B3F8024800F0DEF910BD000000780040D6
:1019D0003C0000204800002010B540F2255112487C
:1019E00000F017F988B140F225510F4800F0A5F832
:1019F00008210D4800F000F9012806D108210A4805
:101A000000F092F8084800F0BDF90821064800F0FF
:101A1000F3F8012806D10821034800F085F80248B0
:101A200000F0B0F910BD00000010014010B540F208
:101A30002551124800F0EDF888B140F225510F48C9
:101A400000F07BF808210D4800F0D6F8012806D1F7
:101A500008210A4800F068F8084800F093F90821C6
:101A6000064800F0C9F8012806D10821034800F013
:101A70005BF8024800F086F910BD00000044004009
:101A800010B540F22551124800F0C3F888B140F279
:101A900025510F4800F051F808210D4800F0ACF82E
:101AA000012806D108210A4800F03EF8084800F055
:101AB00069F90821064800F09FF8012806D108219D
:101AC000034800F031F8024800F05CF910BD000056
:101AD0000048004010B540F22551124800F099F836
:101AE00088B140F225510F4800F027F808210D4831
:101AF00000F082F8012806D108210A4800F014F805
:101B0000084800F03FF90821064800F075F8012860
:101B100006D10821034800F007F8024800F032F926
:101B200010BD00000014014001F40072B2F5007F06
:101B300000D100BFCA430280704710B500220023C5
:101B400040F66A14A14200D100BF0A120124944059
:101B5000A3B2DC43048010BD21B1828942F400525B
:101B6000828104E082894DF6FF731A4082817047BA
:101B70001FB501210805FFF709FB01218807FFF7C1
:101B800005FB0020ADF80400ADF80600ADF8080034
:101B9000ADF80C000C20ADF80A0013480068009066
:101BA0006946124800F084F81148006800906946C0
:101BB000104800F07DF8012240F225510B4800F05A
:101BC00052F8002240F225510A4800F04CF8012159
:101BD0000648FFF7C1FF01210648FFF7BDFF40217E
:101BE0000248FFF7A1FF1FBD100000200050004079
:101BF000180000200078004002460020B1F5007F68
:101C000000D100BF13880B400BB1012000E0002081
:101C1000704770B50246002400230025002040F6DE
:101C20006A16B14200D100BFC1F3421501F01F0393
:101C3000012606FA03F3012D02D19689334006E00E
:101C4000022D02D1168A334001E0968A33400C12ED
:101C5000012606FA04F41688344013B10CB10120B1
:101C600000E0002070BDF0B50346002400260025EA
:101C7000002040F66A17B94200D100BF1846C1F3F0
:101C8000421401F01F06012707FA06F5012C01D1C5
:101C90000C3004E0022C01D1103000E014301AB1F5
:101CA00007682F43076002E00768AF430760F0BD95
:101CB0002DE9FF4705460E460024A14600BFA04679
:101CC000B08900B100BF2C8A24F44054F08804434A
:101CD0002C82AC8941F20C608443B088318908437E
:101CE000718908430443AC81AC8A24F44074B08900
:101CF0000443AC826846FFF759FA2048854202D077
:101D00001F48854202D1DDF80C9001E0DDF8089013
:101D1000A88900F4004040B109EBC90000EB0910AC
:101D200031684900B0FBF1F707E009EBC90000EBAF
:101D3000091031688900B0FBF1F76420B7FBF0F0BF
:101D400004012009642101FB1078A88900F40040F7
:101D500040B1322000EBC800B0FBF1F000F007000A
:101D6000044308E0322000EB08106421B0FBF1F0DE
:101D700000F00F0004432C81BDE8FF8700100140F4
:101D80000014014001468888C0F308007047C1F381
:101D900008028280704700BFFEE70000014A024946
:101DA00000F0D8B8BD2600081C0000207CB5491EF4
:101DB0001C461546CDE90001044B6A4621462846DB
:101DC00000F0DAF8009A002111707CBDA726000807
:101DD00002E008C8121F08C1002AFAD170477047F4
:101DE000002001E001C1121F002AFBD17047000052
:101DF0002DE9FF5FDDE90220010DDDF838B0024377
:101E000018D044F61050A1F2FF3141430D140F9841
:101E1000012820D0A5EB0B00401C5FEA000A4FF020
:101E20000004474EDFF81C91A046504616D5CAF173
:101E3000000728E00F98012443A2012808D00021C0
:101E400000980F9BC0E90021C0E90243BDE8FF9F55
:101E50006FEA0B01F4E7CBF10000DEE7074612E082
:101E6000F80707D02246334640464946FEF7BEFAF9
:101E7000804689462246334610461946FEF7B6FA92
:101E800004460E467F10002FEAD1DDE90201BAF1C7
:101E9000000F42464B4602DAFEF7A8FA01E0FEF7D1
:101EA00017FB04460E460022284BFEF799FB03D889
:101EB0004FF0FF30014607E00022254B2046314617
:101EC000FEF7EDF9FEF773FB102409E0002C0ADBA6
:101ED0000A220023FEF7B2F9019B30321A55641E24
:101EE00050EA0102F2D1641C019AC4F111031444B6
:101EF0000F9A012A03D0012208430DD10AE00843BA
:101F000004D000204FF0110B0F9080E7A3EB0B05DE
:101F10006D1E0DE05B4504DD4FF0000205F101058B
:101F200004E003DA4FF00002A5F10105002AECD02D
:101F300000980F99C0E90231C0E9004586E700002A
:101F4000000024400000F03F300000000000F0439B
:101F50000000E03F2DE9F04116460F4604460025FB
:101F600003E03946B047641C6D1C20780028F8D186
:101F70002846BDE8F08100002DE9FF4F95B09B4653
:101F80008946064600250FE2252877D100242746FA
:101F9000F84A0121059400E0044316F8013F203B74
:101FA00001FA03F01042F7D130782A2811D06FF0EF
:101FB0002F033078A0F13002092A16D8059A44F090
:101FC000020402EB820203EB42021044761C0590ED
:101FD000EFE759F8042B0592002A03DA504244F443
:101FE0000054059044F00204761C30782E2816D157
:101FF00016F8010F44F004042A280DD06FF02F02C8
:102000003078A0F13003092B09D807EB870302EBE6
:102010004303C718761CF3E759F8047B761C307825
:102020006C280FD006DC4C2817D068280DD06A2801
:1020300014D104E0742810D07A280FD10DE044F4B4
:1020400000140AE044F4801401E044F4401472786F
:10205000824202D104F58014761C761C3078662802
:102060000BD013DC582877D009DC002875D0452820
:10207000F6D04628F4D047281AD19DE118E063280D
:1020800035D0642879D0652812D195E1702873D0B5
:1020900008DC6728F1D069286FD06E280DD06F2832
:1020A00006D1B5E073282CD0752875D0782874D067
:1020B0005A46179990476D1C75E1C4F302500228E7
:1020C00009D003280DD0D9F8001004280DD00D60D8
:1020D00009F1040967E1D9F80010EA17C1E90052D3
:1020E000F6E7D9F800100D80F2E70D70F0E719F867
:1020F000041B8DF8001000208DF80100EA46012035
:1021000003E059F804AB4FF0FF3061074FF00001D6
:1021100002D40DE008F101018846B9420FDA80458A
:10212000F8DB1AF808100029F4D108E008F10101E1
:1021300088468142FADB1AF808100029F6D1059882
:102140005B46A0EB080721463846179A00F094FA40
:10215000284400EB080507E04DE029E10DE01AF8FE
:10216000010B5A4617999047B8F10108F7D25B4620
:1021700021463846179A13E142E00A220092C4F33E
:1021800002524FF0000A022A08D059F804CB032A61
:102190004FEAEC710AD00DE029E02AE009F10701CD
:1021A00021F00702F2E802C1914609E00FFA8CFC27
:1021B0004FEAEC71042A03D14FFA8CFC4FEAEC7120
:1021C000002907DA0A460021DCF1000C61EB02016C
:1021D0002D2202E0220504D52B228DF804200122B5
:1021E00003E0E20701D02022F7E7904659E00A21F8
:1021F00002E010220DE010214FF0000A00910BE0E8
:1022000010224FF0000A44F004040827009203E073
:1022100008224FF0000A0092C4F30252022A05D0AD
:1022200059F804CB0021032A08D009E009F107017D
:1022300021F00702F2E802C1914605E01FFA8CFC8A
:10224000042A01D10CF0FF0C4FF00008220728D51A
:10225000702806D0009B83F0100353EA0A0305D0D0
:102260000EE040228DF80420012208E05CEA010221
:1022700006D030228DF804208DF805000222904609
:10228000009B83F0080353EA0A030AD15CEA0102C7
:1022900001D1620705D530228DF804204FF00108E6
:1022A0007F1E582804D034A003900EA802900DE0A1
:1022B00036A0F9E753466046009AFDF7BFFF844613
:1022C0000398825C0298401E029002705CEA010052
:1022D000F0D1029806A9081A00F1200A600702D579
:1022E00024F4803400E00127574502DDA7EB0A0003
:1022F00000E0002000EB0A01009005984144401ADC
:102300000590E00306D45B462146179A059800F035
:10231000B3F90544002706E001A85A46C05D1799A5
:1023200090476D1C7F1C4745F6DBE0030CD55B46F0
:102330002146179A059800F09FF9054404E03020E3
:102340005A46179990476D1C0099481E0090002925
:10235000F5DC08E0029802995A460078491C02917F
:10236000179990476D1CBAF10001AAF1010AF1DC3E
:1023700065E1000009280100303132333435363749
:1023800038396162636465660000000030313233C1
:102390003435363738394142434445460000000061
:1023A00000F058F90544761C307800287FF4ECAD35
:1023B00019B02846BDE8F08F620700D4062709F15E
:1023C000070222F0070CFCE80223E14603F0004874
:1023D0005FEA080C02D00FF2702C0DE05FEA045C9B
:1023E00002D50FF2682C07E05FEAC47C02D00FF23E
:1023F000602C01E0AFF2700C4FF0FF3823F0004387
:10240000CDF850C065280CD006DC452809D04628F8
:102410001DD047283DD13DE0662818D067287ED1E1
:1024200038E00021112F01DB112000E0781CCDE9FC
:10243000000106A90EA8FFF7DBFCDDE90F010E9AEB
:1024400003910021009207F1010A04914DE04FF041
:1024500000400097CDE9011006A90EA8FFF7C8FCBF
:10246000DDE90F0203920E9B11990022DDF80CA00A
:102470000093049211B9791C00EB010AB7EB0A0032
:1024800004D4C0F1FF3007F1010A0490AAEB070061
:10249000019044E0012F00DA01270021112F01DD16
:1024A000112000E03846CDE9000106A90EA8FFF78B
:1024B0009FFCDDE90F010E9A039100210491009227
:1024C000BA4621070CD40399514500DA8A46BAF17D
:1024D000010F05DD009AAAF10101515C302908D0F5
:1024E000B84202DA10F1040F06DA0121CDE9011039
:1024F00015E0AAF10101E9E7002805DC049901448F
:102500000491AAEB000102E0411C514500DD8A461E
:102510000499401A401C01904FF00040029020079F
:1025200004D40198504501DBCDF8048000208DF8DB
:102530004F0002980DF14F07B0F1004F25D02B202E
:102540000E9002984FF0020800280CDA40420290E8
:102550002D200E9007E00A210298FDF759FE303138
:10256000029007F8011DB8F10001A8F10108F2DCA2
:1025700002980028EFD1791E0E980870307800F08C
:10258000200040F0450007F8020D12A8C01B00F122
:1025900007081498007800B1012000EB0A010198A7
:1025A00001EBE07105984144401A401E0590E0039C
:1025B00006D45B462146179A059800F05DF805445D
:1025C0001498007818B15A46179990476D1CE0038B
:1025D00024D55B462146179A059800F04DF805442E
:1025E0001CE00498002807DBDDE90301884203DDD5
:1025F0000098405C179901E0179930205A4690479F
:10260000049805F10105401C04900198401E0190BA
:1026100004D12E205A46179990476D1CBAF100013B
:10262000AAF1010ADDDC05E017F8010B5A461799FB
:1026300090476D1CB8F10001A8F10108F4DC5B467D
:102640002146179A0598ABE62D0000002B000000EC
:10265000200000002DE9F041044600251E461746E3
:10266000880404D405E039462020B0476D1C641E60
:10267000F9D52846BDE8F0812DE9F0410446002552
:102680001E469046C80301D5302700E02027880465
:1026900004D505E041463846B0476D1C641EF9D5A7
:1026A0002846BDE8F0814A68002A06D00A68531C13
:1026B0000B6010704868401E4860704700BF054AB4
:1026C000128802F04002002AF9D0C2B2014B1B1D51
:1026D0001A8070470078004000240026002500275B
:1026E000FEF730F85CA30A2232210120FEF720FC1D
:1026F00060A31E2211460020FEF71AFC5DA3BE2235
:102700001E210020FEF714FC66A332221E210120A8
:10271000FEF70EFC9FE01AE012E06B48FFF732FB79
:10272000C7B2402F0CD1012500206849088068A05D
:10273000FFF734FB6AA346221E210120FEF7F8FBB7
:1027400040F225516048FFF757FA0028E5D15F486D
:1027500000883C2801DA002DDED035B968A3462276
:102760001E210120FEF7E4FB05E06CA35A221E2186
:102770000120FEF7DDFB1BE0FEF79AFB082817D1CE
:10278000012240F225515048FFF76DFA01246BA356
:102790006E221E210120FEF7CBFB71A0FFF7FEFA8F
:1027A00001217348FFF71FF8FF217248FEF796FEDC
:1027B000464800883C2801DA002CDDD054B16E4830
:1027C000FEF736FA002401266CA396221E21012072
:1027D000FEF7AEFB4FF4FA70FEF714F8002C3AD176
:1027E000002201216248FFF71BF86AA3AA221E21DA
:1027F0000120FEF79DFB4FF4FA70FEF703F800226C
:1028000001216B48FFF70CF85A48FEF717FE5528D0
:1028100001D0012E10D1002666A0FFF7BFFA3220AA
:10282000FDF7F0FF67A0FFF7B9FA3220FDF7EAFFE6
:102830005148FEF71DFB0EE05EA0FFF7AFFA322015
:10284000FDF7E0FF62A0FFF7A9FA3220FDF7DAFFFB
:102850006348FEF70DFB5EE74F532D38D4DACFDF28
:10286000BCE0B2E2CFB5CDB320424F4F544C4F4104
:10287000444552002A2A2A2A2A2A2A2A2A2A2A2A85
:102880002A2A2A2A2A2A2A2A2A2A2A2A2A2A2A2AA8
:102890002A2A2A2A2A2A2A2A2A2A2A2A2A2A2A0DB5
:1028A0000A00000057616974696E6720666F7220C4
:1028B0006E6574776F726B20636F6E6E656374699B
:1028C0006F6E2E2E2E0000000078004020000020A9
:1028D000234E4554574F524B4F4E2A0D0A000000CD
:1028E0004E6574776F726B20686173206265656EE8
:1028F00020636F6E6E65637465642E2E2E0000007B
:102900004E6574776F726B206973206E6F742063ED
:102910006F6E6E65637465642E2E2E005761697448
:10292000696E6720666F722072656D6F74652063D3
:102930006F6D6D616E642E2E2E00000057616974FC
:10294000696E6720666F7220746865206669726DB3
:1029500077617265207061636B6167652E2E2E0052
:10296000234637437C48454152544F46462A00008F
:1029700000080040F0FC0008000001085570677274
:1029800061646520697320636F6D706C6574656444
:102990002E2E2E004A756D7020696E746F20617046
:1029A000706C69636174696F6E2E2E2E00000000DA
:1029B00000040040234637437C48454152544F4E63
:1029C0002A000000234D41494E4150502A0D0A0073
:1029D0002353504152454150502A0D0A0000000037
:1029E00000000608042A000800000020480000003B
:1029F000D01D00084C2A000848000020080C0000E8
:102A0000E01D000800C20100004B000000C20100F0
:102A100000C2010080250000B004000000C20100D7
:102A200000000000000000000000000000010203A0
:102A30000401020304060708090100000000000069
:0C2A40000000000000000000000000008A
:04000005080001AD41
:00000001FF
